:10000000E6C300000CC400000AC4000008C40000DD
:1000100006C4000004C4000002C400000C944B237A
:10002000FEC300000C9422235DC7000045C60000FB
:10003000F6C30000F4C30000F2C30000F0C30000E8
:10004000EEC30000ECC30000EAC30000E8C30000F8
:10005000E6C30000E4C30000E2C30000C2C7000022
:10006000DEC30000DCC30000DAC30000D8C3000018
:10007000D6C30000D4C30000D2C30000D0C3000028
:10008000CEC30000CCC30000CAC30000C8C3000038
:10009000C6C30000C4C30000C2C30000C0C3000048
:1000A000BEC30000BCC30000BAC300008E049104AC
:1000B00084048804B204B204B204950499049D0433
:1000C000A304A704B204AD0494299429992A5B2AB5
:1000D000242A942994299429242A5B2A00C1808106
:1000E000120100020200004041233680000101029B
:1000F000000112010002000000404123368000018F
:1001000001020001180341007200640075006900DB
:100110006E006F0020004C004C00430022034100A1
:1001200072006400750069006E006F0020004C00D2
:1001300065006F006E006100720064006F000403D0
:100140000904080B00020202010009040000010278
:10015000020000052400100105240101010424020D
:10016000060524060001070581031000400904016B
:1001700000020A0000000705020240000007058394
:10018000024000000000000200080E00000304010D
:10019000000B000000000000000000000000000054
:1001A0000000040802011040804010204080408080
:1001B00008020401804020100201108010204040FD
:1001C00004040404040304050202020204030202FC
:1001D00002020606060606060404020202040000E5
:1001E00000002300260029002C002F000000000042
:1001F000250028002B002E00310000000000240004
:1002000027002A002D00300020202020202000255B
:100210007500256400222563223A25640025646860
:10022000253032646D2530326400556E6B6E6F7709
:100230006E20737461747573210054656D702E2087
:10024000636F6E74726F6C204F464600446F6F721E
:10025000206F70656E0057616974696E6720666F04
:1002600072207065616B0049646C00496E76616C48
:100270006964206D6F6465002A2A2054657374696F
:100280006E67202A2A004F66660050726F66696C9E
:100290006500526F6F6D2020004D6F646500202D4A
:1002A0002D2E2D00002074696D65206C656674002C
:1002B0005761697420746F2000696E6720666F72E1
:1002C000004865617400436F6F6C00436F6E737418
:1002D0002E004672696467652000426565722000E1
:1002E0002C2256223A5B0022257322006C6F67494C
:1002F00044006C6F67547970650042656572004612
:1003000072696467650025532074656D702073659C
:100310007420746F20257320696E204D656E752ED4
:100320000054656D7020636F6E74726F6C2074750D
:10033000726E6564206F666620696E206D656E75ED
:100340002E004368616E67656420746F2070726F61
:1003500066696C65206D6F646520696E206D656EE1
:10036000752E00202020202020202020202020204A
:10037000002575006E756C6C002225732200537485
:1003800061746500526F6F6D54656D7000467269DF
:10039000646765416E6E0046726964676553657493
:1003A0000046726964676554656D700042656572E8
:1003B000416E6E00426565725365740042656572F8
:1003C00054656D700022257322004E3A7B227622FE
:1003D0003A222553222C226E223A25642C226322B3
:1003E0003A222553222C2273223A25642C22792288
:1003F0003A25642C2262223A222563222C226C2286
:100400003A222564227D00302E322E3400633037AC
:1004100037316332350025532073657420746F20A3
:100420002573202553004672696467652074656DE5
:100430007000426565722074656D70004D6F646573
:100440000062792074656D706572617475726520E3
:1004500070726F66696C6500696E207765622069ED
:100460006E7465726661636500706F735065616B71
:10047000006E65675065616B00706F735065616BEE
:10048000457374006E65675065616B4573740065F4
:1004900073745065616B006400690070006265658B
:1004A00072536C6F70650064696666496E74656747
:1004B00072616C006265657244696666006873000B
:1004C0006C61680062656572536C6F706546696C3B
:1004D000740062656572536C6F7746696C74006274
:1004E0006565724661737446696C7400667269640E
:1004F0006765536C6F706546696C740066726964F9
:100500006765536C6F7746696C74006672696467DF
:10051000654661737446696C74006D6178436F6FF2
:100520006C54696D65466F72457374006D617848EF
:1005300065617454696D65466F7245737400636FCD
:100540006F6C5461726765744C00636F6F6C5461BB
:100550007267657448006865617454617267657498
:100560004C00686561745461726765744800696421
:100570006C6552616E67654C0069646C6552616EB2
:1005800067654800694D6178457272004B64004BA5
:1005900069004B70007069644D61780074656D701E
:1005A0005365744D61780074656D705365744D6961
:1005B0006E0074656D70466F726D617400636F6F6D
:1005C0006C45737400686561744573740066726984
:1005D0006467655365740062656572536574006D88
:1005E0006F646500DF050000CC20D70500006E2099
:1005F000CD050000EC20C5051304841DBD051504C0
:10060000841DB2050000231DA70518042A1D9C05A2
:100610001A042A1D95053C048F1D92051C04841D97
:100620008F051E04841D8C052004841D840522046E
:100630008F1D790524048F1D6E0526048F1D62050C
:1006400028048F1D56052A048F1D4A052C048F1D72
:100650003E052E048F1D2C053004351D1A0532046D
:10066000351DC0043A04401DBD043B04401D0B056C
:100670000000501DFC040100501DEC040200501D40
:10068000DF040300501DD2040400501DC404050003
:10069000501DB4040003A70402039D0406039B0439
:1006A000080299040A0297040C028F040E018404C4
:1006B0001001790412017104140169041601B205D4
:1006C0000004A70501019C0503019505250392057A
:1006D00005028F0507028C05090284050B037905C5
:1006E0000D036E050F0362051103560513034A053A
:1006F00015033E0517032C0519051A051B050B05E7
:100700001D00FC041E00EC041F00DF042000D204C6
:100710002100C4042200C0042300BD042400000200
:1007200004000300011003020000030201000600A0
:100730000400060500200605040003020100230052
:100740000100130200000305040003030410030565
:1007500003200000000046726964676520646F6FC3
:100760007220255300636C6F736564006F70656E53
:100770006564004300A200DC0014800000FD00015D
:10078000000200FE99009AFF660067FF5802B0045D
:100790000104030304040000001425642E253033F3
:1007A000640025642E253032640025642E25303106
:1007B00064006E756C6C00003C0AE50A5D0BD0139A
:1007C000CE153C2CEE0A660BEA13D915552C1124D4
:1007D0001FBECFEFDAE0DEBFCDBF12E0A0E0B1E098
:1007E000EEE3F9E602C005900D92AC35B107D9F7FA
:1007F00024E0ACE5B2E001C01D92A235B207E1F7FA
:1008000017E0C4ECD7E004C02297FE010E94AE2F8F
:10081000C83BD107C9F70E9494180C9493340C94E8
:10082000A5188091BC029091BD022091BE0230912A
:10083000BF02821B930B8F73992708952091BC02EE
:100840003091BD028091BE029091BF0228173907F6
:1008500049F0E091BE02F091BF02E458FD4F808163
:1008600090E008958FEF9FEF08952091BC023091A2
:10087000BD028091BE029091BF0228173907A9F0EE
:10088000E091BE02F091BF02E458FD4F80812091BB
:10089000BE023091BF022F5F3F4F2F73332730933B
:1008A000BF022093BE0290E008958FEF9FEF08955E
:1008B000A0E0B0E0EEE5F4E00C94E72F6C017A01E3
:1008C000EB01E60EF71E00E010E0CE15DF0561F04B
:1008D0006991D601ED91FC910190F081E02DC60166
:1008E0000995080F191FF1CFC801CDB7DEB7E8E0B1
:1008F0000C94033090E0FC013197EE30F10590F557
:10090000EA5AFF4F0C94AC2F809180008F7703C080
:10091000809180008F7D80938000089584B58F77CB
:1009200002C084B58F7D84BD0895809190008F773B
:1009300007C0809190008F7D03C080919000877FD9
:100940008093900008958091C0008F7703C08091BC
:10095000C0008F7D8093C00008958091C200877F82
:100960008093C2000895A2E0B0E0E9EBF4E00C94BB
:10097000EB2F8C016115710589F0CB0169837A83B6
:100980000E948B31D801ED91FC910280F381E02D22
:10099000AC0169817A81C801099502C080E090E0CC
:1009A0002296E4E00C9407300895615030F02091D5
:1009B000F100FC0120830196F8CF289884E680930B
:1009C0006C0208952FB7FC012083F8946770609340
:1009D000E9000895A1E0B0E0E0EFF4E00C94ED2F21
:1009E000682FCE010196EEDF8091F20099819FBFC2
:1009F0002196E2E00C940930A1E0B0E0E2E0F5E0FD
:100A00000C94E92F7B018A0190916B02992311F0DC
:100A100057FF03C08FEF9FEF28C0682FCE010196CC
:100A2000D1DF8091F20090E0A801801791070CF4CB
:100A3000AC01F701942F9E0D84E69E1739F028989B
:100A400080936C022091F1002193F7CF411551055D
:100A500021F08091F200882321F089818FBFCA01A3
:100A600004C08BE68093E800F8CF2196E6E00C9472
:100A70000530A1E0B0E0EFE3F5E00C94ED2F41E0AC
:100A800050E0BE016F5F7F4FB7DF019719F4898196
:100A900090E002C08FEF9FEF2196E2E00C940930C6
:100AA000CF93DF93C091BC02D091BD022196CF734A
:100AB000DD278091BE029091BF02C817D90791F03F
:100AC00082E0D7DF8F3F2FEF920761F0E091BC0209
:100AD000F091BD02E458FD4F8083D093BD02C093D6
:100AE000BC02E0CFDF91CF910895A1E0B0E0EBE749
:100AF000F5E00C94ED2F682FCE01019663DF909105
:100B0000E800892F807295FF04C09091F20080E484
:100B1000891B99819FBF2196E2E00C9409301092C5
:100B2000E90010926A021092690290936802809321
:100B300067020895CF93DF93FB01A0E0B0E0DEEF02
:100B4000A417B50799F187FF02C0C49101C0C08105
:100B50006091690270916A02209167023091680287
:100B600062177307B4F49091E8009570E1F39091E7
:100B7000E80092FD1DC0C093F10020916902309100
:100B80006A022F5F3F4F2F733327232B11F4D0932B
:100B9000E8002091690230916A022F5F3F4F309345
:100BA0006A022093690211963196CACFCD0102C024
:100BB0008FEF9FEFDF91CF910895FC0120812E5F91
:100BC000208342E450E062E471E080E8B3CFCF9349
:100BD000DF93EB012091E80022FFFCCF6C2FE5DED4
:100BE0008BEF8093E800CE01DF91CF910895FC0157
:100BF00081819081913A51F4813209F049C047E0F6
:100C000050E06AE071E080E095DF44C0913209F085
:100C10003FC0803231F467E070E08AE091E0D7DFD6
:100C200039C0823209F034C08281809311018091F1
:100C30000A0190910B01A0910C01B0910D01803B34
:100C40009440A105B10531F58091110180FD12C0DC
:100C500087E797E790930108809300082BE088E1ED
:100C600090E00FB6F894A895809360000FBE209393
:100C7000600010C088E10FB6F89480936000109275
:100C800060000FBEA895109201081092000802C0E3
:100C900080E0089581E00895A1E0B0E0E2E5F6E0AB
:100CA0000C94ED2F1982CE01019687DF898190E0A7
:100CB0002196E2E00C9409301F920F920FB60F922A
:100CC0001124DF92EF92FF920F931F932F933F9384
:100CD0004F935F936F937F938F939F93AF93BF9344
:100CE000EF93FF93CF93DF93CDB7DEB76197DEBF6E
:100CF000CDBF1092E9008091E80083FFC9C068E091
:100D0000CE010A9652DE82EF8093E8009A8597FF23
:100D100005C08091E80080FFFCCF03C08EEF809378
:100D2000E800892F807609F0A1C08B85811105C06C
:100D30001092F1001092F100A4C0282F2D7F2130D5
:100D400009F49FC0853049F48091E80080FFFCCF12
:100D50008C8580688093E30094C0863009F05FC082
:100D6000DD84E888F98822E0D21227C080E090E094
:100D7000D6DE92DF99E08E010F5F1F4FF801292F19
:100D800011922A95E9F79983DA8291E09E8390E89F
:100D900098879AEF99872091690230916A02275FBC
:100DA0003F4F3C832B838D83C701B9DE49E050E080
:100DB000B80180E0BFDE70DF64C0C701B0DE81E053
:100DC000D8120DC088899989089711F4D0926602CB
:100DD00080916602882389F060EE70E016C0E3E03F
:100DE000DE1253C08C85882359F0823061F0813047
:100DF00009F04BC064E071E008C062EF70E005C02C
:100E00006EE371E002C06CE171E06115710509F4F7
:100E10003CC0FB01449150E080E88CDE32C087305A
:100E2000A1F1883021F481E08093F1002AC089305B
:100E300041F5937051F5EDEDF0E081E021E096E3AE
:100E40008093E9002093EB0034913093EC00909371
:100E5000ED008F5F3196843099F78EE78093EA003A
:100E60001092EA008C8580936B020BC08889998967
:100E700056DE8E85811109C0CE010A96B8DE882320
:100E800021F08EEF8093E80003C081E28093EB00B5
:100E900061960FB6F894DEBF0FBECDBFDF91CF9144
:100EA000FF91EF91BF91AF919F918F917F916F9142
:100EB0005F914F913F912F911F910F91FF90EF9074
:100EC000DF900F900FBE0F901F9018958093E90050
:100ED0008091F200882319F08AE38093E800089556
:100EE00083E0F4CF1F920F920FB60F9211242F932D
:100EF0003F934F935F936F937F938F939F93AF93A2
:100F0000BF93EF93FF938091E1001092E10083FF84
:100F10000FC01092E90091E09093EB001092EC006A
:100F200092E39093ED0010926B0298E09093F000A2
:100F300082FF23C083E0CADF82E04CDD882319F002
:100F40008EE692E0ADDD80916D02882339F08091CC
:100F50006D02815080936D02882369F080916C024C
:100F6000882359F080916C02815080936C0281112A
:100F700004C0289A02C05D9AF1CFFF91EF91BF9112
:100F8000AF919F918F917F916F915F914F913F9121
:100F90002F910F900FBE0F901F901895E4CC0895DD
:100FA000DC01ED91FC910190F081E02D099508950F
:100FB0000F931F93CF93DF93EC016DE0F1DF8C0172
:100FC0006AE0CE01EDDF800F911FDF91CF911F917D
:100FD0000F9108950C94143008950C94AC3008953A
:100FE00008951F920F920FB60F9211242F933F93E3
:100FF0008F939F93AF93BF9380915D0290915E0218
:10100000A0915F02B091600230915C0223E0230F57
:101010002D3720F40196A11DB11D05C026E8230F30
:101020000296A11DB11D20935C0280935D029093F6
:101030005E02A0935F02B093600280916102909182
:101040006202A0916302B09164020196A11DB11DDC
:101050008093610290936202A0936302B093640252
:10106000BF91AF919F918F913F912F910F900FBEA4
:101070000F901F9018952FB7F89460915D027091B2
:101080005E0280915F02909160022FBF08953FB78A
:10109000F8948091610290916202A0916302B091F4
:1010A000640226B5A89B02C02F3F89F43FBF662784
:1010B000782F892F9A2F620F711D811D911D42E09B
:1010C000660F771F881F991F4A95D1F708950196DB
:1010D000A11DB11DEBCFCF92DF92EF92FF92CF9384
:1010E000DF936B017C01D3DFEB01C114D104E10478
:1010F000F10471F0CCDF6C1B7D0B683E7340A8F3EC
:1011000081E0C81AD108E108F108C851DC4FEDCFE1
:10111000DF91CF91FF90EF90DF90CF900895CF9324
:10112000C09111016AE070E080E090E0D4DF81E0DE
:10113000C11101C080E0CF910895A1E0B0E0E3EAE1
:10114000F8E00C94DF2F582E8B015A0180916B022E
:10115000882361F07A015AEF952E852D8072782EC2
:101160006AE3862E852D8074682E0FC08FEF9FEF67
:101170004FC0852DBADC482E81110BC09A94B1F373
:1011800061E070E080E090E0A6DFE114F10489F70F
:1011900036C0282F30E0E216F3060CF44E2CC42C97
:1011A000D12CEC18FD08652DCE0101960BDC7720C3
:1011B00039F04A948FEF4816B1F01092F100F9CF50
:1011C000F801842D57FE07C0815058F094919093F8
:1011D000F1003196F9CF815020F091919093F10078
:1011E000FACF0C0D1D1D8091E80085FF0EC0E114A3
:1011F000F10411F4611009C089818FBFC6CF5D98D9
:1012000084E680936D02C50103C08092E800F4CFAC
:101210002196E0E10C94FB2FA1E0B0E0E2E1F9E0DF
:101220000C94EB2F8C01698380911101882351F07C
:1012300041E050E0BE016F5F7F4F83E07EDF181614
:1012400019063CF081E090E0F8019383828380E00E
:1012500090E02196E4E00C94073010926B0281E05C
:101260008093D70080EA8093D80082E189BD09B4D9
:1012700000FEFDCF61E070E080E090E02CDF80E9CF
:101280008093D8008CE08093E2001092E000559AA1
:10129000209A08950197009739F0880F991F880FB9
:1012A000991F02970197F1F70895789484B58260A9
:1012B00084BD84B5816084BD85B5826085BD85B5FA
:1012C000816085BDEEE6F0E0808181608083E1E8A9
:1012D000F0E01082808182608083808181608083E1
:1012E000E0E8F0E0808181608083E1E9F0E08081E6
:1012F00082608083808181608083E0E9F0E080818A
:1013000081608083E1ECF0E0808184608083808173
:1013100082608083808181608083E3ECF0E0808163
:1013200081608083E0ECF0E0808182608083E2EC89
:10133000F0E0808181608083EAE7F0E08081846072
:1013400080838081826080838081816080838081CE
:10135000806880830895CF93DF9390E0FC01EE5581
:10136000FE4F2491FC01E054FE4F8491882349F103
:1013700090E0880F991FFC01E650FE4FA591B491B3
:1013800084519E4FFC01C591D4919FB7611108C053
:10139000F8948C91209582238C93888182230AC0B3
:1013A000623051F4F8948C91322F309583238C93D2
:1013B0008881822B888304C0F8948C91822B8C9333
:1013C0009FBFDF91CF910895A1E0B0E0EAEEF9E090
:1013D0000C94EB2F282F30E0F901EC57FE4F84914D
:1013E000F901EE55FE4F1491F901E054FE4F0491BE
:1013F0000023C1F0882319F069837CDA6981E02F2A
:10140000F0E0EE0FFF1FE451FE4FA591B4919FB79E
:10141000F8948C91611103C01095812301C0812B38
:101420008C939FBF2196E4E00C940730CF93DF9319
:10143000282F30E0F901EC57FE4F8491F901EE5569
:10144000FE4FD491F901E054FE4FC491CC2379F0C2
:10145000811150DAEC2FF0E0EE0FFF1FE252FE4F49
:10146000A591B4912C912D2381E090E011F480E0BE
:1014700090E0DF91CF910895109271021092700266
:1014800088EE93E0A0E0B0E0809372029093730244
:10149000A0937402B093750282E291E090936F0280
:1014A00080936E02089524E331E0FC0131832083B0
:1014B0000895FC0162830895FC018281089524E36C
:1014C00031E0FC0131832083089524E331E0FC0105
:1014D0003183208382CD24E331E0FC0131832083FA
:1014E0007CCD89EC92E0BCD044EF51E062E089EC25
:1014F00092E0B9D00E94ED1D0E94D9250E94B4232C
:101500000E9401140E94A8140E9437150C946E23A7
:101510000F931F93B0DD0091C0021091C102209182
:10152000C2023091C302601B710B820B930B683EA9
:1015300073408105910508F441C09DDD6093C002B0
:101540007093C1028093C2029093C3028091C6023D
:10155000882369F0E091C902F091CA020280F38108
:10156000E02D89EC92E0099561E0682701C060E018
:1015700089EC92E056D00E94B5250E944F2B0E9424
:1015800045261091F5030E941D298091F50318133B
:101590000E944D200E94DF2A8091E003882321F0E1
:1015A0001092E0030E9445190E9437150E94C4144E
:1015B0000E94021586EF92E00E94CB230E94B12187
:1015C0001F910F910895A4CF089580E491E0909326
:1015D000C5028093C4021092C602089584E391E08C
:1015E0009093C5028093C40208952FEF2F5FFC01F2
:1015F000E20FF11D27FDFA953081332321F06313AB
:10160000F5CF822F08958FEF089524E331E0FC0198
:1016100031832083089524E331E0FC01318320836A
:10162000DCCCA1E0B0E0E7E1FBE00C94EB2F8C0117
:10163000DC01ED91FC910280F381E02D6983099535
:101640006981681749F0F801628384B5662311F057
:10165000806201C08F7D84BD2196E4E00C94073048
:1016600061E083E078CEA0E0B0E0E9E3FBE00C9439
:10167000E82FD62E7A01C0E0D0E0062F10E001500E
:101680001109CD15A8F484B5806284BDB70187EC3B
:1016900092E00E94562F84B58F7D84BDC017D1077C
:1016A0002CF4B70187EC92E00E94562F2196E9CFE7
:1016B000CDB7DEB7E7E00C9404301092CB028CE497
:1016C00091E09093CA028093C902089584E391E067
:1016D0009093CA028093C9020895FC0171836083CC
:1016E0000895FF920F931F93CF93DF93EC018B012B
:1016F000F42E888199810E94551AB80188819981B8
:101700000E941C1B40E06F2D888199810E94E61A7F
:10171000CDB7DEB7E5E00C940630EF92FF920F9361
:101720001F93CF93DF93EC017A014EEBDADF00E0F9
:1017300010E0888199810E94021BF70181937F014B
:101740000F5F1F4F09301105A1F7888199810E9411
:10175000551ACDB7DEB7E6E00C940530A0E0B0E056
:10176000E4EBFBE00C94E72FEC017B018A01C22E35
:101770004EE4B7DF0E5F1F4F83E0D82EF801619172
:101780008F0140E0888199810E94E61ADA94B1F7CE
:10179000888199810E94551ACC2079F0B7018881FF
:1017A00099810E941C1B40E068E4888199810E9415
:1017B000E61A888199810E94551ACDB7DEB7E8E014
:1017C0000C9403301F93CF93DF93EC0144EB89DF3C
:1017D000888199810E94BB1A182F888199810E9463
:1017E000551A81E0111180E0DF91CF911F9108958A
:1017F000EF92FF920F931F93CF93DF938C017B01A6
:10180000EA018BDF68E0CE010E94F81B98858913FE
:1018100006C0B701C801D6DF91E0982701C090E06B
:10182000892FCDB7DEB7E6E00C940530A9E0B0E033
:10183000ECE1FCE00C94E82F8C017B01AE014F5FE2
:101840005F4FD6DFD82E811102C0D12C23C08B81EF
:1018500081110CC08FE78D8381E08B8320E0AE0186
:101860004F5F5F4FB701C80179DF14C01B8221E0D1
:10187000AE014F5F5F4FB701C80170DFAE014F5F30
:101880005F4FB701C801B4DF8823F9F28B81811162
:10189000DCCFE0CF8D2D2996E7E00C940430A9E051
:1018A000B0E0E5E5FCE00C94E92F8C017B01FC0144
:1018B000808191810E94551AB701F8018081918140
:1018C0000E941C1B40E064E4F801808191810E9429
:1018D000E61AAE014F5F5F4FB701C80189DF882369
:1018E00029F081E09B81911101C080E02996E6E01A
:1018F0000C940530A9E0B0E0E0E8FCE00C94ED2F9A
:10190000AE014F5F5F4F74DF882319F08B81811127
:1019100003C080E090E806C08A8190E0982F882775
:101920002981822B2996E2E00C9409302CE931E0E0
:10193000FC0131832083089580E00895DC01ED915E
:10194000FC910084F185E02D099521E081159048F6
:1019500009F420E0822F089580E090E80895FC01CA
:101960008481089524EC31E0FC01318320830895C3
:1019700024EC31E0FC0131832083089524EC31E034
:10198000FC0131832083089524E331E0FC0131839D
:10199000208308952CE931E0FC01318320830895F0
:1019A00080E008952CE931E0FC013183208315CBE0
:1019B00024EC31E0FC01318320830FCB24EC31E0B7
:1019C000FC013183208309CB24EC31E0FC0131831D
:1019D000208303CB24E331E0FC0131832083FDCA63
:1019E0002CE931E0FC0131832083F7CAFC016483D8
:1019F00082818627682F8381E7CCCF93DF93EC0128
:101A00008B8114DD2A8130E041E08217930709F4CD
:101A100040E0842FDF91CF9108950F931F93CF93D0
:101A2000DF938B01EA01FC01608184E591E0DDDD5B
:101A300087FD08C0C80FD11D87FDDA95C8010E9437
:101A40003B316883DF91CF911F910F9108950F93E0
:101A50001F93CF93DF938B01EA01FC0160818AE53C
:101A600091E0C3DD87FD08C0C80FD11D87FDDA9561
:101A7000C8010E943B316883DF91CF911F910F9184
:101A800008958CE991E09093EF028093EE0284E355
:101A900091E09093F1028093F00284EC91E09093B6
:101AA000F4028093F3020895613029F48250823069
:101AB00058F080E00895623019F48130D1F704C005
:101AC0006111F7CF8111F5CF81E008957F936F9376
:101AD00021E631E03F932F938F9385E48F930E940B
:101AE00004180F900F900F900F900F900F90089583
:101AF000A0E0B0E0EEE7FDE00C94E82F8C01FC01E3
:101B00008381813019F0823041F14DC0623089F417
:101B100084E090E05FDAEC01F801F58014812EECAE
:101B200031E03983288362E0812F15DCFA821B8340
:101B30003CC085E090E04EDAEC01F801858114812B
:101B400028EB31E0398328838A831B8360E0CE0150
:101B50004DDF61E0812FFFDB28C0F80184818631F1
:101B600029F48FEDE82E82E0F82E02C0E12CF12C52
:101B700080E190E02FDAEC01F801D7848EE192E069
:101B800099838883FB82EA821D821C8281E08F8791
:101B9000B801695F7F4F48E050E0CE0106960E9491
:101BA0007A31DE8602C0C0E0D0E0CE01CDB7DEB72C
:101BB000E7E00C940430FC018081823078F481816C
:101BC000823060F4E281E150E93040F4F0E0EE0F61
:101BD000FF1FEE57FE4F80819181089580E090E0D5
:101BE0000895A1E2B0E0E7EFFDE00C94E92F7C015D
:101BF000162F211104C06CE249A3D2D949A1842F28
:101C0000992787FD90959F934F931F921F9385E18E
:101C100092E09F938F938E010F5F1F4F1F930F933F
:101C20000E94A931B801C701B9D90FB6F894DEBF37
:101C30000FBECDBFA196E6E00C9405300C9429169A
:101C40000895FB012081222399F0213408F02753C5
:101C50002295207FFB013181313410F0375301C0D0
:101C60003053232BFC012193CF016E5F7F4FE9CFCF
:101C70000895EF92FF920F931F93CF93DF937C0110
:101C80008B01EA01FC0160818EED91E0AEDCF70191
:101C90009081913631F448E0B801CE010A96D1DF47
:101CA00016C09A3651F4C8010E94F92D25E0959589
:101CB00087952A95E1F789870AC087FD08C0C80F74
:101CC000D11D87FDDA95C8010E943B316883CDB7ED
:101CD000DEB7E6E00C940530CF93DF93DA01FC0128
:101CE00070E09F01281B390B26173707BCF4EF0162
:101CF000208122952F702A3010F0295C01C0205DD0
:101D00002C93319628812F702A3010F0295C01C065
:101D1000205D11962C9311971296E3CFFB01EE0FE5
:101D2000FF1FE40FF51F1082DF91CF910895FC0192
:101D300020812F3F49F48381811110C081E0FB0194
:101D4000928191110CC008C0332727FD309550E0D7
:101D500081E02417350719F080E0089581E00895A7
:101D6000A2E1B0E0E6EBFEE00C94EA2F8C01F12C4E
:101D70006F2DCE0101966DD7882331F1F801838153
:101D80009C8189131FC08130C1F08230F9F48885AD
:101D9000882399F088E0815080F0282F30E0F80106
:101DA000E20FF31FA8E0B0E0AC0FBD1FA20FB31FFE
:101DB00047819C91491779F305C0F80194818D8181
:101DC000981721F0F394D4CF8FEF01C08F2D629636
:101DD000E5E00C94063081508C3030F4E82FF0E0D0
:101DE000EA58FE4F8081089580E00895CF92DF92F7
:101DF000FF920F931F93CF93DF931F92CDB7DEB760
:101E00008C01DC011296FC908F2DE5DF282FC80194
:101E10002983D1DE6C012981009709F45CC022304E
:101E200009F444C0233079F1213009F054C0FC0199
:101E300080819181F6E0FF120E94392F22E08E3ED0
:101E4000920709F448C0D80112962C91263031F43B
:101E50002EEE32E0F601318320830BC0D601ED91E6
:101E6000FC912EEE32E031832083EF50FF4F2FEFB5
:101E70002083009781F1DC01ED91FC910280F381D8
:101E8000E02D099528C0FC0180819181F2E0803F1E
:101E90009F0709F1009739F0DC01ED91FC91068074
:101EA000F781E02D099580EF92E012C0DC018D9161
:101EB0009C91B2E0833F9B0771F0009739F0DC0101
:101EC000ED91FC910480F581E02D099583EF92E07E
:101ED000F601918380830F90DF91CF911F910F9135
:101EE000FF90DF90CF900895A2E1B0E0EAE7FFE035
:101EF0000C94EC2F81E089838A8310E01B83CE0150
:101F0000019674DF1F5F1031C9F76296E3E00C940D
:101F10000830A1E0B0E0EFE8FFE00C94E72F6C019F
:101F2000DC0112968C9157DF682FC601698343DE6E
:101F30008C0169810097D1F1F6018681811136C04B
:101F4000613049F098F1643088F5C601D1DDD801DF
:101F50008D939C932BC061E0C601CADD7C01D80142
:101F60008D919C91892B29F4F601628170E082E0C9
:101F7000ADDDD60112968C91863061F4D701ED91DA
:101F8000FC910680F781E02DC7010995F801F182E7
:101F9000E0820CC0D8018D919C91FC01F182E0821D
:101FA000EF50FF4F2FEF20830E94472E2196E8E04D
:101FB0000C940330FF920F931F93CF93DF93EC01A8
:101FC0002881622F70E06530710514F084E05DC0F7
:101FD0009981692F70E06730710514F085E055C074
:101FE0008A81682F70E0603171050CF04DC0882344
:101FF00021F0893008F04CC006C0911102C02223A4
:10200000E9F080E003C0211119C081E01F922F93F5
:102010001F929F931F928F938FE591E09F938F93D1
:1020200087E08F9385E48F93EFD78DB79EB70A969D
:102030000FB6F8949EBF0FBE8DBF28C0CCDEF82E21
:102040000B81602F31DD182F811116C01F920F9365
:102050001F92FF9220E631E03F932F9388E08F9309
:1020600085E48F93D1D78DB79EB708960FB6F894B5
:102070009EBF0FBE8DBF10C0023071F46C816631FF
:1020800059F070E089E001C086E020DD10E004C076
:102090009111D4CF82E0BACF812FCDB7DEB7E5E082
:1020A0000C940630A1E1B0E0E8E5F0E10C94E52FF6
:1020B000A82E8B016A017901FB0182818CDEB82E8A
:1020C0008091DE02811104C06CE2C7010E94D0073A
:1020D0001092DE026BE7C7010E94D00721E04A2D73
:1020E00069E6C7017EDD20E04B2D64E7C70179DD9D
:1020F00020E0F801408163E6C70173DD20E0F801CC
:10210000418162E6C7016DDD20E0F801428166E6AB
:10211000C70167DD20E0F801438168E6C70161DDA2
:1021200020E0F801468164E6C7015BDD20E0F801AC
:10213000448160E7C70155DDC114D10469F0F6019F
:102140008081882349F063E671E0C7010E94CE07D1
:10215000B601C7010E94CE07F8018381813029F4BE
:1021600020E0458168E7C7013CDDF80183818230CA
:10217000B1F469E671E0C7010E94CE07AE014F5F7E
:102180005F4F68E0C8010796A7DDBE016F5F7F4F14
:10219000C7010E94CE0762E2C7010E94D007F80182
:1021A00083818230D1F44785F0E24F02A0011124EF
:1021B000662757FD6095762F08E023E0CE01019653
:1021C0000E94B52D60E771E0C7010E94CE07BE01F5
:1021D0006F5F7F4FC7010E94CE076DE7C7010E9466
:1021E000D0076196EAE00C940130A4E2B0E0EBEF96
:1021F000F0E10C94E92F7C0162E18CEC92E069D56E
:102200006CEC72E089E39EE00E9469216091CC024F
:10221000613108F07BC0CE0101961BD542E150E050
:10222000BE016F5F7F4FCE0143960E947A3180914D
:10223000CD0287FF8B8B8091CE0287FF8C8B8091A4
:10224000CF0287FF8D8B8091D00287FF8E8B80918C
:10225000D10287FF8F8B8091D5028F3F09F08AA32F
:102260008091D20287FF888F8091D6028F3F41F004
:1022700048E050E066ED72E0CE014A960E947A3165
:102280008091D40287FF898F8D89811104C062E11A
:10229000CE01439626D54091CC02BE016F5F7F4FA1
:1022A000CE01439687DE882391F0CE0101969EDD14
:1022B000CE0143969BDDCE0143962BDE6091CC028E
:1022C000CE014396E6D48E010D5E1F4F10C04FE63F
:1022D00051E05F934F9383E08F9385E48F9394D67F
:1022E0000F900F900F900F908E010F5F1F4F85E59D
:1022F0000E94171E81E08093DE02970140E050E0CB
:10230000B8018091CC02CEDE0E94131EA496E6E0B6
:102310000C940530FB0123853485AB014F5F5F4F83
:10232000BC018081BFCE8F929F92AF92BF92CF921D
:10233000DF92EF92FF920F93CF93DF93CDB7DEB78B
:102340006D970FB6F894DEBF0FBECDBF7C014B0179
:102350005A016901FB018481882339F03CDDF701D2
:102360006381A2DB882309F461C0C701F9DCF601AF
:10237000808387FD07C0F4019381911157C0682FB6
:10238000C7015CDCF6011182F4018281882309F423
:1023900049C0F7018381823009F044C04601FFEF54
:1023A0008F1A9F0A8DE0F7013496DE015196019055
:1023B0000D928A95E1F78989863119F48FED92E0C3
:1023C00002C080E090E02EE132E03A8329839C83D2
:1023D0008B831E821D8281E0888B48E050E0BE0125
:1023E0006C5E7F4FCE0107960E947A311F86CE0128
:1023F00001960E94AF1C882329F0CE0101960E940D
:102400000D1D02C080E090E8AC01662757FD609585
:10241000762F09E023E0C4010E948E2DCE010196A3
:102420000E94121CB601C701F50109956D960FB601
:10243000F894DEBF0FBECDBFDF91CF910F91FF901B
:10244000EF90DF90CF90BF90AF909F908F900895C6
:10245000A2E1B0E0EEE2F2E10C94E42F8C016B011A
:102460005A0162E1CE0101963CD481E08C838983DC
:1024700044E9E42E41E0F42E99249394F7018191EC
:102480007F0187FD13C0F80191819F3F11F09813E0
:1024900008C08D839E829501A601B801CE010196E8
:1024A00042DFF8E9EF16F1E0FF0641F7F80181811C
:1024B0008F3F11F0843041F484E08D839501A601B3
:1024C000B801CE0101962FDF6296EBE00C9400304C
:1024D000A4E1B0E0EEE6F2E10C94E62F8C017B0182
:1024E0006A0162E1CE010196FCD3F80181818F3F40
:1024F00011F0863181F586E18D8381E089838FED4E
:1025000092E00E94351B52E0B52EBE01685F7F4FFE
:102510008FED92E00E946B1B8823E9F0888588325A
:1025200011F4BC8201C01C828C81823069F46FED91
:1025300072E0CE014396D1D8BE01685F7F4FCE01D5
:10254000439674D9882309F39601A701B801CE01F7
:102550000196E9DEDACF6496E9E00C940230A2E15C
:10256000B0E0E5EBF2E10C94EB2F8C01198A188AAC
:102570008FEF8F878E871A8ABE01625F7F4F8DE053
:102580009DE00E9469211D870C8781E08093DE0217
:102590008E858F3F41F0823031F08E858F3F61F024
:1025A000813091F409C0AE014F5F5F4F6AE871E17D
:1025B000CE010E968DDFF1CFAE014F5F5F4F6AE81F
:1025C00071E1CE010E9644DF6296E4E00C94073090
:1025D000AF92BF92DF92EF92FF920F931F93CF9330
:1025E000DF931F92CDB7DEB78C017B015A01DB016F
:1025F0001296DC908D2DEFDB282F882309F463C021
:10260000C7012983D8DAFC012981009709F45BC04E
:10261000D80112963C9137FD10C0233071F48081AF
:102620009181DC01ED91FC9161E0311101C060E02C
:102630000190F081E02D099546C0D80111968C914A
:10264000813009F040C0223049F480819181DC0161
:10265000ED91FC910190F081E02D24C02130C1F476
:1026600080819181B6E0DB120E94392FDC01ED916F
:10267000FC910084F185E02D0995AC01662757FD9A
:102680006095762F09E023E0C5010E948E2D1BC0C6
:102690002330C9F480819181DC01ED91FC910280AD
:1026A000F381E02D09951F928F938FE092E09F9325
:1026B0008F93BF92AF920E94A9310F900F900F900D
:1026C0000F900F900F900F90DF91CF911F910F916E
:1026D000FF90EF90DF90BF90AF900895A0E2B0E040
:1026E000E4E7F3E10C94EA2F8C0164E0CE014D960F
:1026F000F0D218A2BE01635E7F4F87E29DE00E9488
:1027000069218D8D8E3F01F58F8D87FD45C011E0CC
:10271000811101C010E0109346048091440490910F
:102720004504DC01ED91FC910190F081E02D612FD9
:102730000995112389F188EC92E00E944D2F909326
:1027400041048093400428C081E08093DE02F12C94
:102750006F2DCE0101967DD28823F1F04F2DBE0161
:102760006F5F7F4FCE014D96E2DA882399F01B8A86
:10277000AE014D5E5F4FBE016F5F7F4FCE014D9644
:1027800027DF9801AE014D5E5F4FBE016F5F7F4F47
:102790008F2D88DCF394DCCFA096E5E00C94063016
:1027A00088ED91E09093F4028093F3021092F50289
:1027B00080E491E09093F1028093F0021092F20293
:1027C0008AEA91E09093EF028093EE0266E18FED4A
:1027D00092E05DC756C90895A5E1B0E0E2EFF3E1EC
:1027E0000C94EB2F8C01CE0101960E947331BE0137
:1027F0006F5F7F4FC8010E94CE076596E4E00C949E
:1028000007308FEF8093590382E08093580386EF5F
:1028100092E00E94162444E064E186EF92E00E9478
:10282000182586EF92E00C949F24A9E0B0E0EBE13C
:10283000F4E10C94EB2F811520E8920731F46EE956
:1028400072E086EF92E0C8DF22C0AC01662757FD38
:102850006095762F09E021E0CE0101960E948E2D31
:10286000CE0101960E948B3115E0181B00E0011784
:102870003CF460E286EF92E00E94FE240F5FF7CF07
:10288000BE016F5F7F4F86EF92E00E94CE072996D0
:10289000E4E00C940730CF93DF93EA01462F682FD2
:1028A00086EF92E00E94C924CE01BFDFDF91CF9175
:1028B00008950E94BA28AC0161E086E0ECCF0E9446
:1028C000CB28AC0161E08CE0E6CF8091580380FF1B
:1028D0000CC080911C0190911D01DC01ED91FC91D7
:1028E0000084F185E02D099502C00E94D028AC013A
:1028F00062E086E0D0CF0E94E1282091580320FFBB
:1029000002C080E090E8AC0162E08CE0C4CF462FCA
:10291000682F86EF92E00E94C9246FED86EF92E067
:102920000E94FE246091170486EF92E00C94FE242E
:10293000CF93DF93EA01462F682F86EF92E00E9443
:10294000C924BE0186EF92E047DFDF91CF91089561
:1029500049E952E060E080E0EBDF4AED52E061E0FF
:1029600080E0E6DF8091580380FF03C042E952E037
:1029700002C042ED52E062E080E0DADF61E082E135
:10298000C6DF62E082E1C3CF8091580381FF21C09E
:1029900088EC92E00E944D2F83FD0CC080911C01B9
:1029A00090911D01DC01ED91FC910480F581E02DF9
:1029B000099501C080E090915803292F217082175A
:1029C00041F0882311F0916001C09E7F90935803DD
:1029D000BFDF6FDF74DF79DF8ECF80935803B8DFFE
:1029E000D3CFCF93DF93EA01462F682F86EF92E093
:1029F0000E94C924BE0186EF92E00E94CE07DF91BB
:102A0000CF91089540E067E086EF92E00E94C924EC
:102A100080910E048F36F9F038F4823661F08636F4
:102A2000E9F462ED72E009C0803769F08437B1F4EF
:102A300068E772E015C06AED72E086EF92E0CCDEE6
:102A40006BEC72E00DC06AED72E086EF92E0C4DEDE
:102A50006AE872E005C066E872E002C06BE672E008
:102A600086EF92E0B9DE86EF92E00C944E25ABE063
:102A7000B0E0EDE3F5E10C94E92F8091F2038111D0
:102A800003C02091F50301C022E08091590328176B
:102A900021F1209359032A3078F4822F90E0880F97
:102AA000991FFC01E250FE4F40815181FC01E6512B
:102AB000FE4F0081118104C004EA12E04AE252E0B4
:102AC00063E080E02B8734DFB80186EF92E084DE9C
:102AD00086EF92E00E944E252B852B870E941528B9
:102AE0002B8521110EC00E9407288C010E940E2800
:102AF0000817190718F40E94072819C00E940E2809
:102B000016C03DEF320F323090F0283011F02930EE
:102B100039F424EB30E0A901481B590BCA0107C066
:102B200025502230B8F58091E8039091E9038F3F5A
:102B30005FEF950779F1ECE3F0E0BF010E945A2FB7
:102B40009C01CB01BF010E945A2F7B013F932F9321
:102B50009F938F93FF926F938DE192E09F938F935A
:102B60008E010F5F1F4F1F930F930E94A9310FB665
:102B7000F894DEBF0FBECDBFE114F10429F4029733
:102B8000AE014D5F5F4F01C0A80163E094E1981B67
:102B9000892F27DF2B96E6E00C9405301092F9027E
:102BA0001092F80287E492E09093F7028093F60285
:102BB000089587E492E09093F7028093F6020895D7
:102BC00080E090E00E94C43391E0843009F090E00E
:102BD000892F08950F931F93CF93DF93C0E0D0E028
:102BE00060E0CE010E94DB332196C11584E0D80756
:102BF000B9F77AD90E9465280E948D2806E010E076
:102C0000C8010E941C28E801A89606591F4FCE0152
:102C10000E9423282B96C017D107C9F7CE3A81E02E
:102C2000D80711F08E01ECCF64E080E090E00E94C4
:102C3000DB330E94D925DF91CF911F910F91089529
:102C40008EE290E00C94232886E090E00E941C28FD
:102C5000F7CFA1E0B0E0EFE2F6E10C94EB2F8C01AE
:102C60006983AEDF6981882311F0603110F080E064
:102C70000CC082E1689FB001112462557E4F42E191
:102C800050E0C8010E94B43381E02196E4E00C9446
:102C90000730A1E0B0E0EFE4F6E10C94EB2F8C01FB
:102CA00069838EDF6981882311F0603110F080E044
:102CB0000CC082E1689FB001112462557E4F42E151
:102CC00050E0C8010E94CC3381E02196E4E00C94EE
:102CD00007302FEF615020F0FC012193CF01FACF94
:102CE0000895615020F0FC011192CF01FACF0895B0
:102CF000A2E1B0E0EEE7F6E10C94EB2F61DF082FE4
:102D0000882331F1F1D886E090E00E945D288EE2C0
:102D100090E00E94A72810E0612FCE01019699DF74
:102D20008823B1F0412FBE016F5F7F4FCB0142D9A5
:102D3000882321F0CE010196ECD808C062E1CE01D3
:102D40000196CFDF612FCE010196A3DF1F5FE4CF95
:102D5000802F6296E4E00C940730CF93DF93FC0160
:102D6000EC01C45BDF4FDC01A35BBF4F98E0908FA9
:102D700082E0818F92AB83AB98838C93DF91CF916C
:102D80000895FC01862F880F8C5F808F618F82AB46
:102D900063ABDF01A45BBF4F8C93E35BFF4F6083AA
:102DA00008950F931F93CF93DF938C01C0E0D0E081
:102DB000C8018C0F9D1F32D0AB01BC016A96CE3486
:102DC000D105B1F7CB01BA01DF91CF911F910F91DE
:102DD0000895AB01662757FD6095762FBA015527F8
:102DE0004427DFCF805C9F4FFC016081718182812D
:102DF000938108950F931F93CF93DF93EC018B0181
:102E0000A1D0B801CE014A969DD0B801CE01C4969A
:102E100099D0DF91CF911F910F910895A4E0B0E078
:102E2000E4E1F7E10C94DD2FFC0149835A836B83C5
:102E30007C8384809580A680B78080869186A286D8
:102E4000B38640805180628073804482558266825E
:102E50007782408351836283738300891189228939
:102E60003389048B158B268B378BC484D584E684F9
:102E7000F784C08AD18AE28AF38A418DA08D2A2EF6
:102E8000312CC701B601601B710B820B930B6C0DCB
:102E90007D1D8E1D9F1D042E04C0F594E794D794CC
:102EA000C7940A94D2F76C197D098E099F096801AD
:102EB000790104C0F594E794D794C7944A95D2F762
:102EC0006C0D7D1D8E1D9F1DC980DA80EB80FC80FE
:102ED0000A2E04C0F594E794D794C7940A94D2F7C5
:102EE0006C0D7D1D8E1D9F1DA1014150510904C017
:102EF00075946794579447944A95D2F7640D751D5D
:102F0000861D971D04C0B594A79497948794AA959D
:102F1000D2F7680D791D8A1D9B1DD101129704C03F
:102F20003595279517950795AA95D2F7601B710BD4
:102F3000820B930B64877587868797872496E2E1D7
:102F40000C94F92FFC01AB01662757FD6095762F95
:102F5000BA01552744274083518362837383448396
:102F60005583668377834087518762877387448759
:102F7000558766877787408B518B628B738B448B29
:102F8000558B668B778B08950F931F93FC014089B7
:102F900051896289738904851585268537850417CB
:102FA0001507260737075CF484899589A689B789B0
:102FB000481759076A077B0714F0CB0102C080E06D
:102FC00090E81F910F9108950F931F93FC01408982
:102FD000518962897389048515852685378540174F
:102FE0005107620773075CF484899589A689B789BC
:102FF00084179507A607B70714F0CB0102C080E03D
:1030000090E81F910F910895A9E0B0E0EAE0F8E19F
:103010000C94E22FCB8CDC8C84E409D6698D82EF92
:1030200092E060D76A8D8CEE92E00E94202180EEC3
:1030300092E09F938F93D7D58E01035E1F4F0F9021
:103040000F90712C87EEE82E82E0F82E92E1A92EE7
:1030500092E0B92EF601E70DF11D8081882309F475
:1030600056C0863679F178F4843609F042C04801BA
:1030700082E0880E911CF80181818F9380818F936B
:10308000BF92AF9230C08337A1F0843791F54801E9
:10309000F2E08F0E911CF80140815181662757FDA7
:1030A0006095762F0CE021E0CE0101960E948E2DD6
:1030B00016C04801F2E08F0E911CF80181818F93B8
:1030C00080810EC04801F2E08F0E911CF8016081F2
:1030D00071812CE043E0CE0101960E94E72C9F9382
:1030E0008F93FF92EF927FD50F900F900F900F90DC
:1030F00084017394F601E70DF11D8081882309F4A2
:10310000A9CF6CE28EE692E00E94D007A3CF6DE5D6
:103110008EE692E00E94D007A4D52996EDE00C94AB
:10312000FE2F0C94000008950E94550985E692E058
:103130000E942D090E94710AC0E0D0E00E94E30ABB
:103140002097E1F30E940000F9CF1F920F920FB673
:103150000F9211240F900FBE0F901F901895089595
:103160000E949B2348E052E0682F80E0E1CB43E6D9
:1031700053E060E087E0DCCBA4E0B0E0E2ECF8E113
:103180000C94ED2F82E6898386E68A8380E78B8321
:103190008FE68C830E949B238C0F9D1F60E0FC01B7
:1031A00081810E946E282496E2E00C9409306F928F
:1031B0007F929F92AF92BF92CF92DF92EF92FF9257
:1031C0000F931F93CF93DF931F92CDB7DEB77C0190
:1031D0008B015A01690188EC92E00E944D2F3C015D
:1031E000912CB30188EC92E00E943D2F0A9760F584
:1031F0000E94A323882341F088EC92E00E944D2F87
:103200003C01F701099502C0911004C0F80109952D
:10321000912C05C0F0E89F1202C0F501099580913C
:10322000E003882349F01092E0038983F8010995AF
:10323000F6010995898109C0939463E070E087ECF9
:1032400092E00E94562FCDCF80E00F90DF91CF917A
:103250001F910F91FF90EF90DF90CF90BF90AF90B4
:103260009F907F906F90089542E050E060E070E0A2
:1032700080E090E00E948B2326E23AE140EB58E1A7
:1032800068EA74E18FEA98E192CFCF93C091580336
:103290008C2F8C7FA2DBE8DF8C2F9FDBCF910895F2
:1032A000CF93C0910E046C2F82E192E00E94F50A48
:1032B00043E050E060E070E090E00E948B232EE35A
:1032C0003AE147EB58E162E075E18CEB98E16FDFA2
:1032D000811104C060E08C2F0E946E28CF91089568
:1032E000A9E0B0E0E6E7F9E10C94DD2F1B016A01EB
:1032F0005901FC0109952C018115F0E89F0711F097
:103300007C0103C0E12C88ECF82E60911A047091C6
:103310001B04882777FD8095982F0E94CF2D3C01B4
:103320006091180470911904882777FD8095982F73
:103330000E94CF2D4C01B201882777FD8095982FF0
:103340000E94CF2DA301B4010E948B2388EC92E050
:103350000E944D2F4C01712CB40188EC92E00E9428
:103360003D2F0A9708F04EC00E94A323882399F1AD
:1033700088EC92E00E944D2F4C010E949B230E94FA
:10338000FD2D7C01AC01602F8CE085DA8091E0039B
:10339000882309F31092E003C701F1010995A70101
:1033A000662757FD6095762F09E021E0CE01019652
:1033B0000E948E2D9F938F93DF92CF9286E093E0B1
:1033C0009F938F93F50109950F900F900F900F9099
:1033D0000F900F9017C0711005C0A701602F8CE0EF
:1033E0005ADA08C0F0E87F1205C048E052E0602FCA
:1033F0008CE09EDA739463E070E087EC92E00E94C8
:10340000562FAACF2996E2E10C94F92F0F931F9320
:1034100002E010E02FEA30E24FEF52E06CEC7AE28B
:1034200081EE98E25DDF1F910F9108950F931F9336
:1034300001E010E022E530E24AEF52E06DE97AE285
:103440008BEC98E24DDF1F910F9108950E949B2312
:103450008130910531F08230910549F0892B69F472
:103460001FCF60E082E60E946E28CCDADFCF60E0FA
:1034700086E60E946E28C6DAC9CF089580910E04B0
:10348000823609F4D3CF863609F4C0CF803719F4D9
:1034900082E493E004C08F3639F481E293E09F9395
:1034A0008F9300D60F900F900895FF920F931F9364
:1034B000CF93DF93FC010081C181D281F89489818F
:1034C000F02EF0948F21898378941DE7115029F113
:1034D00082E090E00E944A0988818023B9F3F89441
:1034E0008A818F218A838981802B8983789480EED9
:1034F00091E00E944A09F89489818F21898386E4AA
:1035000090E00E944A098881802311E009F010E0D0
:1035100078948AE991E00E944A09812FCDB7DEB7FD
:10352000E5E00C9406300F931F93CF93DF93FC01DB
:103530001081C181D281662319F007E38AE002C0BD
:1035400005E081E4F8942A81912F909592239A8343
:103550009981912B998390E00E944A099A81912B3D
:103560009A837894802F90E00E944A09DF91CF914E
:103570001F910F9108950F931F93CF93DF93FC0139
:103580001081C181D281F8948981812B89838A81BC
:10359000012F009580238A8383E090E00E944A09EE
:1035A0008981802389838AE090E00E944A09C8814A
:1035B000789485E390E00E944A091C2381E009F495
:1035C00080E0DF91CF911F910F910895EF92FF92CC
:1035D0000F931F93CF93DF938C01E62EC8E0D0E0CA
:1035E000FF24F39461E09F2D9E2109F460E0C8015F
:1035F0009ADFFF0C21972097A9F7CDB7DEB7E6E059
:103600000C940530EF92FF920F931F93CF93DF93AB
:103610008C01C8E0D0E0F12CEE24E394C801ABDFCC
:103620008111FE28EE0C21972097C1F78F2DCDB781
:10363000DEB7E6E00C940530FF920F931F93CF9313
:10364000DF93EC018B0140E065E5C0DF88E0F82EF8
:10365000F80161918F0140E0CE01B8DFFA94C1F723
:10366000CDB7DEB7E5E00C940630FC011486168673
:10367000158627E030E0DF01A20FB31F14961C92DD
:103680002115310519F021503109F5CF08951F9307
:10369000CF93DF93EC01162F6B8360E0812F0E94A4
:1036A000AB09612F70E0FB01EE55FE4FE491E8831A
:1036B000FB01E054FE4FE491F0E0EE0FFF1FE252F9
:1036C000FE4F859194919A838983CE01CEDFDF915D
:1036D000CF911F910895A1E0B0E0E1E7FBE10C94E8
:1036E000E52F5C018B01FC018685811163C0C5015A
:1036F000DCDE811105C0F50114861686158674C0BE
:1037000040E060EFC50162DFEE24E394D12CC12CD0
:10371000FF24F394C5012FDF682FC50169832BDFD8
:103720006981613019F48130C1F43AC02D2D30E047
:1037300068131FC0F5018485F81630F4E20FF31FFB
:1037400084818E2151F402C0F81639F060E0F8E06F
:10375000FF1570F0F501F5860BC0D501AD0DB11D5B
:1037600014968C9114978E2914968C9361E00CC05A
:10377000CF2CD501A20FB31F14968C9114979E2DB8
:103780009095892314968C93C501CDDEF394EE0CAD
:1037900019F4D394EE24E394F7E0FD1508F0BACFC2
:1037A00080E48F1538F4F501C486C11017C081E09C
:1037B000868714C0F50114861686158680E0F80108
:1037C00020E030E0D501A20FB31F14969C91919395
:1037D0002F5F3F4F28303105A9F706C0F5018481DE
:1037E000882341F381E0EBCF2196EAE00C9401308D
:1037F000FC0180E05CE8615088F0419198E0742F12
:103800007827282F30E035952795822F70FF02C04A
:10381000852F82274695915091F7EDCF0895FC01B1
:1038200087850895CF93DF93EC018EE192E0998331
:1038300088838C819D810E94ED078CE991E09983BA
:103840008883DF91CF910895CF93DF93EC01EADF76
:10385000CE010E94ED07DF91CF910895A1E1B0E084
:10386000E4E3FCE10C94E82F7C01D62EDC011F96EA
:103870008C91861779F18E010F5F1F4FA80168E0C8
:10388000C70106960E946C0EF701D7860280F3816D
:10389000E02DDD2061F01F930F9383811F928F93A2
:1038A00087E192E09F938F931F9289E40CC01F934E
:1038B0000F9383811F928F9387E192E09F938F9361
:1038C00082E08F9387E58F939FDB0FB6F894DEBF7E
:1038D0000FBECDBF6196E7E00C9404301F93CF93E9
:1038E000DF93EC01BC016A5F7F4F8C819D810E9458
:1038F0004F0C182F682FCE01B1DF812FDF91CF91B0
:103900001F910895CF93DF93EC01BC016A5F7F4F55
:103910008C819D810E947A0CBC01611580E878073A
:1039200031F460E0CE019ADF80E090E815C08E852A
:10393000680F711D87FD7A957350882777FD8095F4
:10394000982F2FEF33E040E05CEF0E94172E25E028
:10395000880F991F2A95E1F7DF91CF910895A1E192
:10396000B0E0E5EBFCE10C94E52F8C015C0126E076
:10397000A20EB11CCE0101967C01AC0168E0C5012C
:103980000E946C0EF80184819581892B01F582E0FB
:1039900090E00E94EA076C01F801628173810E9445
:1039A0006D0BF801D582C482C114D10481F4FF9259
:1039B000EF9288E192E09F938F931F9285E48F931B
:1039C00023DB0F900F900F900F900F900F90F80146
:1039D000848195810097C1F0B5010E94160C88235F
:1039E00099F0C8017BDF882379F06EEE72E087ECF6
:1039F00092E00E94562FC80185DF8115904821F082
:103A0000C8016CDFF82E01C0F12C6F2DC80126DF34
:103A10008F2D6196EAE00C9401300F931F93CF93A2
:103A2000DF93EC018F85882339F0CE016BDF8C01A9
:103A3000CE0154DFC80102C080E090E8DF91CF9151
:103A40001F910F910895FC018081809317040E94BB
:103A5000A814FAC8CF93DF93EB010E94F52D998348
:103A60008883F2D8DF91CF910895CF93DF93EB0154
:103A70000E943B3179836883E7D8DF91CF91089525
:103A8000CF93DF93EB010E943B3121E0672B682B42
:103A9000692B09F420E02883D7D8DF91CF910895CE
:103AA0000F931F93CF93DF93EB01162F13700E9498
:103AB0003B31FE01FF27EE0FFF1FE55DFD4F01903B
:103AC000F081E02D6083C33028F020914C043091C8
:103AD0004D0404C020914A0430914B04113059F038
:103AE00030F0123059F4C9010E94352F07C0C901C6
:103AF0000E942E2F03C0C9010E94312FA5D8DF914B
:103B0000CF911F910F910895CF93DF93EB010E9406
:103B1000F32C7983688398D8DF91CF910895CF9360
:103B2000DF93EB010E94F92D998388838DD8DF9173
:103B3000CF910895A6E0B0E0E0EAFDE10C94E72F14
:103B40007C016B01DF926F93FF928F9388E292E08A
:103B50009F938F938CE08F9389E48F9355DA04EED3
:103B600015E00FB6F894DEBF0FBECDBF46E050E0C3
:103B7000B801CE0101960E94613169817A81C70145
:103B80000E946A31892B39F46B817C81ED81FE8141
:103B9000C601099512C00A5F1F4F96E00239190746
:103BA00029F78FE691E09F938F931F9287E58F937C
:103BB0002BDA0F900F900F900F902696E8E00C9460
:103BC000033080911C0190911D01DC01ED91FC916D
:103BD0000084F185E02D0995089560E071EE8EE690
:103BE00092E00C94D404A0E0B0E0E9EFFDE10C9485
:103BF000ED2FFE013596419151919F0160E870E0F3
:103C00008CE593E00E94C8318EE692E00E948F0816
:103C1000882331F06CE573E08EE692E00E94CE07D7
:103C2000E2E00C9409308EE692E00C94D807682FFD
:103C30008EE692E00E94D0076AE38EE692E00E9450
:103C4000D00781E08093DC030895F1DF6BE58EE619
:103C500092E00C94D0076DE58EE692E00E94D007CA
:103C6000E2CF6DE78EE692E00E94D007DCCFA6E0BF
:103C7000B0E0EDE3FEE10C94EA2FF42E6D837E8339
:103C8000D6DF6D817E81FF20C9F08B010C5F1F4F55
:103C900044E050E0CE0101960E946131EC81F0E0F9
:103CA000EE0FFF1FE95CFD4F0190F081E02D6B816D
:103CB00089819A810995FA94B801E5CFD2DF2696D9
:103CC000E5E00C94063087E194E090935B038093E9
:103CD0005A0348E16EEB76E083E4C9CF86EF93E0C8
:103CE00090935B0380935A034BE062E976E086E5AC
:103CF000BECFCF93DF93EC018091DC03882311F0DA
:103D00006BE701C06CE28EE692E00E94D007109251
:103D1000DC0362E28EE692E00E94D007DF93CF934D
:103D200062DF62E28EE692E00E94D0076AE38EE6EE
:103D300092E00E94D0070F900F90DF91CF910895ED
:103D4000CF93DF93EB01D5DF209719F089E793E05C
:103D500002C084E793E0DF93CF939F938F9343DF79
:103D60000F900F900F900F90DF91CF910895EF92E9
:103D7000FF920F93CF93DF93CDB7DEB729970FB69E
:103D8000F894DEBF0FBECDBF7C01AB01662757FDA7
:103D90006095762F09E022E0CE0101960E948E2DDB
:103DA000C701A7DFBE016F5F7F4F8EE692E00E94E2
:103DB000CE0729960FB6F894DEBF0FBECDBFDF91B8
:103DC000CF910F91FF90EF900895A2E0B0E0EBEE5D
:103DD000FEE10C94ED2F69837A838BDF69817A8110
:103DE0008EE692E00E94CE072296E2E00C94093023
:103DF000EF92FF920F93CF93DF93CDB7DEB72C975F
:103E00000FB6F894DEBF0FBECDBF7C01E0915A0320
:103E1000F0915B03E60FF11D40815181662757FD4C
:103E20006095762F0CE021E0CE0101960E948E2D48
:103E3000BC01C701CADF2C960FB6F894DEBF0FBED7
:103E4000CDBFDF91CF910F91FF90EF900895ACE03F
:103E5000B0E0EDE2FFE10C94EB2F8C01E0915A030E
:103E6000F0915B03E60FF11D608171812CE043E06E
:103E7000CE0101960E94E72CBC01C801A6DF2C965A
:103E8000E4E00C940730EF92FF920F93CF93DF930F
:103E9000CDB7DEB72C970FB6F894DEBF0FBECDBFFF
:103EA0007C01E0915A03F0915B03E60FF11D408124
:103EB0005181662757FD6095762F0CE023E0CE01F7
:103EC00001960E94B52DBC01C7017FDF2C960FB66D
:103ED000F894DEBF0FBECDBFDF91CF910F91FF9061
:103EE000EF900895CF93C62F04DF62E28EE692E052
:103EF0000E94D0076C2F8EE692E00E94D00762E20B
:103F00008EE692E00E94D007CF9108950F93CF9351
:103F1000DF93CDB7DEB72C970FB6F894DEBF0FBE98
:103F2000CDBF83E584DE60910E048FED95E0DADF8E
:103F300040910F0450911004662757FD6095762F2D
:103F40000CE022E0CE0101960E948E2DBC0187ED8F
:103F500095E03BDF4091110450911204662757FD14
:103F60006095762F22E0CE0101960E948E2DBC0135
:103F70008DEC95E02ADF60911304709114042CE01D
:103F800043E0CE0101960E94E72CBC0185EC95E050
:103F90001CDF60911504709116042CE043E0CE0103
:103FA00001960E94E72CBC018DEB95E00EDF59DEF7
:103FB0002C960FB6F894DEBF0FBECDBFDF91CF9128
:103FC0000F910895E0915A03F0915B03E60FF11D04
:103FD000608188CFCF93DF93EB018BDEDF93CF93AC
:103FE00081E793E09F938F93FEDD0F900F900F90EA
:103FF0000F90DF91CF910895E0915A03F0915B0308
:10400000E60FF11D60817181E5CF0F931F93CF9370
:10401000DF938C01EB0184E50ADE0E94BA28BC0123
:104020008CEB93E0A4DE0E94CB28BC0184EB93E0F0
:104030009EDEB8018CEA93E083DE0E94D028BC01AA
:1040400081EA93E094DE0E94E128BC0187E993E0D5
:104050008EDEBE018DE893E073DEB3DD80911C013E
:1040600090911D01DC01ED91FC910480F581E02D22
:10407000099581110CC06091F50370E08EE793E023
:10408000A9DFEFDDDF91CF911F910F91089599DDA9
:10409000BC0184E893E06BDEEECF60E070E080E08E
:1040A00090E0B3CFA0E8B0E0E8E5F0E20C94ED2FAB
:1040B000FE01EB57FF4F419151919F0160E870E085
:1040C000CE0101960E94C83160E070E0CE010196F9
:1040D0009CDFC058DF4FE2E00C940930A2E0B0E072
:1040E000E4E7F0E20C94EB2F8C010E94F52D209177
:1040F0000E04203799F420910F0430911004AC0184
:10410000421B530B9A0157FF03C03195219531098A
:1041100025363105F4F021E434E002C028E534E02E
:1041200021153105B1F03F932F931F930F9322E395
:1041300034E03F932F9326E134E03F932F9389831C
:104140009A83B0DF0FB6F894DEBF0FBECDBF9A8161
:1041500089810E949D2A2296E4E00C940730A0E811
:10416000B0E0E5EBF0E20C94ED2FFE01EB57FF4FD2
:10417000419151919F0160E870E0CE0101960E944B
:10418000C831BE016F5F7F4F80E090E03EDFC058D6
:10419000DF4FE2E00C940930CF93DF93EC0160E055
:1041A00088819CD788E594E09F938F93DF93CF938A
:1041B0008CE394E09F938F9386E194E09F938F9399
:1041C000CEDF8DB79EB708960FB6F8949EBF0FBE90
:1041D0008DBFDF91CF910895A2E0B0E0E2EFF0E271
:1041E0000C94EB2F8C010E94F52D20910E042636A5
:1041F000C1F428E534E03F932F931F930F9326E2F9
:1042000034E03F932F9326E134E03F932F9389834B
:104210009A83A5DF0FB6F894DEBF0FBECDBF9A819B
:1042200089810E94CC2A2296E4E00C940730E09128
:104230005A03F0915B03E60FF11D608170E0CACE76
:1042400070E0C8CE1F93CF93DF931AE0C0E9D1E0AE
:104250008EE692E00E941104892B41F4CE01019771
:10426000F1F71150A9F78FEF9FEF04C08EE692E0AF
:104270000E943504DF91CF911F9108951F93CF9332
:10428000DF93EC01188210E0DDDF9C011D31B9F0F5
:104290008D379105A1F02F3F8FEF380781F02C3239
:1042A000310579F02A33310561F0C9018D7F80979E
:1042B00059F3FE01E10FF11D20831F5FE5CF80E080
:1042C00001C081E0C10FD11D1882DF91CF911F91F4
:1042D0000895ACE3B0E0EFE6F1E20C94E82F8C0136
:1042E0007B011F8E1982AEDF8B379105C9F09F933A
:1042F0008F9381E691E09F938F938AE08F9385E47B
:104300008F930E9404180F900F900F900F900F90B2
:104310000F901CC0D12C898181110CC0DD20B1F01F
:10432000CE014F96ABDF8823A9F3CE010196A6DF1D
:10433000D82EF1CF8F8D882389F3A701BE016F5F3F
:104340007F4FCE014F96F8010995E8CFEC96E7E054
:104350000C94043060E070E08AE99DE1BADFD6DDBC
:10436000B2CCA5E1B0E0E7EBF1E20C94DD2F21E661
:10437000422E21E0522E33243394CE0101967C014B
:1043800035ECC32E33E0D32E4DE0A42E44E0B42E02
:1043900057E0852E54E0952E6AEC662E63E0762E6B
:1043A0000FE611E08EE692E00E941104181619063D
:1043B0000CF0F0C08EE692E00E9435049927813619
:1043C000910509F481C0CCF58334910509F481C0CD
:1043D00094F48D30910531F324F48A30910511F372
:1043E000C9C080329105F1F28134910509F0C2C053
:1043F0003092C602D7CF8235910509F4B8C084F453
:104400008534910509F0B6C00E94EA151F930F93F9
:104410008FE08F9389E48F930E940418A5D16BC01D
:104420008335910509F45DC08535910509F0A2C079
:104430008EE692E00E94F510B5CF8C36910509F416
:1044400061C0ACF48436910509F482C034F483363B
:10445000910509F08FC037DCA5CF8836910509F4A6
:104460007EC08A36910509F085C074DF9BCF833703
:10447000910509F445C0FCF48E36910509F07AC027
:104480001F923F921F929CE69F931F921F921F9232
:1044900082E08F93BF92AF921F9287E28F939F9299
:1044A0008F927F926F929FDBBEDB0FB6F894DEBFD8
:1044B0000FBECDBF77CF8437910549F08637910580
:1044C00009F058C00BDC6ECF1092C6026BCFE5DD51
:1044D00069CFFBD50E94A814F6DB1F930F938DE0E4
:1044E00005C01BD613DD1F930F938EE08F9389E4D5
:1044F0008F930E9404180F900F900F900F9052CF3F
:1045000005DD50CF8CE493DB6BE58EE692E00E94F4
:10451000D007212CA701622D86EF92E051D1FF92A6
:10452000EF92DF92CF925FDB0F900F900F900F9082
:1045300093E0291611F06CE201C06DE58EE692E081
:104540000E94D007239484E02812E4CF6CDB2ACFAA
:1045500084E67BDB8EE692E00E946E1306C088E65E
:1045600074DB8EE692E00E94AF1275DB1BCF0E94D7
:10457000911818CF9F938F935F924F923F9297E538
:104580009F930E9404180F900F900F900F900F9020
:104590000F9008CF6596E2E10C94F92FE3B123B1B7
:1045A00022952695277031E02327822F817090E095
:1045B000880F991FE295E170E327E82B90913B0467
:1045C000FF27E7FDF0958091DF038F70992341F07D
:1045D00094E0899FE00DF11D1124E65CF84F07C0BF
:1045E00094E0899FE00DF11D1124E25EF84FE49103
:1045F000E093DF038091DF03807319F12091E103E1
:104600003091E203803119F42F5F3F4F02C02150F7
:1046100031098091E5039091E6034091E3035091C5
:10462000E4038217930714F4CA0104C02417350762
:104630000CF0C9019093E2038093E10386EF92E0CE
:104640001EC108951F920F920FB60F9211242F933F
:104650003F934F935F936F937F938F939F93AF930A
:10466000BF93EF93FF939ADFFF91EF91BF91AF91CB
:104670009F918F917F916F915F914F913F912F917A
:104680000F900FBE0F901F90189581E08093E0036C
:1046900086EF92E0F4C01F920F920FB60F92112492
:1046A0002F933F934F935F936F937F938F939F933A
:1046B000AF93BF93EF93FF93E8DFFF91EF91BF912B
:1046C000AF919F918F917F916F915F914F913F91AA
:1046D0002F910F900FBE0F901F90189562E088E009
:1046E0000E94AB0962E089E00E94AB0962E087E0CA
:1046F0000E94AB09EAE6F0E0808180628083EE9A56
:10470000E8E6F0E0808181608083EBE6F0E0808184
:104710008063808308952FB7F8949093E203809389
:10472000E1037093E4036093E3035093E603409343
:10473000E5032FBF08952FB7F8948091E10390917E
:10474000E2032FBF0895F7DF2091DD033091DE03F0
:104750008217930731F09093DE038093DD0381E0AD
:1047600008958091E00308950E947816811112C087
:10477000D4D4ABD40E94740F8FE691E09F938F93B3
:1047800083E08F9387E58F930E9404180F900F901A
:104790000F900F900895CF93DF93EC016C857D858A
:1047A00088EC92E00E943D2F8935924018F08C8170
:1047B000846002C08C818B7F8C83DF91CF910895C0
:1047C000FC0125E1629FE00DF11D11243E96DA0106
:1047D00080E091919F3D09F490EB9D938F5F843130
:1047E000C1F7FA01148A089561E080E10E94AB09E3
:1047F00061E08FE00E94AB0961E081E10E94AB09BA
:104800008CB58F7D8CBD8CB582608CBD8DB5816083
:104810008DBD8CB588608CBD8CB584608CBD8CB52D
:1048200080618CBD8CB580648CBD0895CF93DF937F
:10483000EC0160ED77E087EC92E00E94562F61E09A
:104840008AE00E94AB0988E28D83CE01CDDF1D8610
:104850001C86DF91CF910895CF93DF93EC0160E048
:104860008AE00E94E4098C818EBD0DB407FEFDCF65
:1048700061E08AE00E94E409DF91CF910895CF932F
:10488000DF93EC0188EC92E00E944D2F9D878C878E
:10489000CE0181DFCE01E0DFDF91CF910895CF938C
:1048A000DF93EC018C8182608C83CE01D5DF81E0C7
:1048B00090E00E944A098C818D7F8C83CE01CCDFF1
:1048C000DF91CF910895CF93DF93EC018C8190E13C
:1048D000699FB00111248F70862B8C83CE01BCDFC1
:1048E000CE01DDDFDF91CF9108950F931F93CF931A
:1048F000DF93EC01162F0FB7F8948C81442311F04D
:10490000816001C08E7F8C83CE01A6DF612F70E0B5
:1049100084E0759567958A95E1F7CE01D4DF612F24
:10492000CE01D1DF0FBFDF91CF911F910F9108957D
:1049300040E0DBDF80EA9FE00197F1F70895CF9335
:10494000DF93EC0161E0F4DF20E030E080E240E062
:1049500050E0FE01E20FF31FDF01A40FB51F1E960A
:104960008C934F5F5F4F44315105B1F712A22B5E1C
:104970003F4F2435310559F7DF91CF910895CF93FB
:10498000DF93EC0162E0D4DF18861986DF91CF91C6
:104990000895A4E0B0E0EFECF4E20C94ED2F19825E
:1049A00020E42A8324E12B8324E52C83FC01228547
:1049B000421708F040E0FC0140876187FE01E40FE8
:1049C000F11D2181260F2068622FB2DF2496E2E0DC
:1049D0000C940930FC016681262F246026836C60CC
:1049E000A7CFFC016781262F226027836660A0CFB6
:1049F000FC0167816E7F678364609ACFFC0121852B
:104A0000308545E1349FE00DF11D1124E20FF11DC9
:104A100066872F5FFC0121872385211106C041E0B5
:104A200064DF80EA9FE00197F1F781E090E008956C
:104A3000CF93DF93EC014A871886198680E593ECC3
:104A40000E944A0963E0CE013EDF80E593EC0E94BC
:104A50004A0963E0CE0137DF88EE93E00E944A09FD
:104A600063E0CE0130DF80E593EC0E944A0962E00A
:104A7000CE0129DF80E593EC0E944A0968E2CE016D
:104A800057DFCE015CDFCE01ACDFCE01B1DFCE015E
:104A900076DFCE019FDFDF91CF910895CF93DF9333
:104AA000EC018985843128F460E2CE010E94D007B0
:104AB000F8CFDF91CF910895FC018085089524E31C
:104AC00031E0FC0131832083089524E331E0FC01CF
:104AD000318320830C94ED071F93CF93DF93EC0178
:104AE000162F68878E819F81DC01ED91FC910190EA
:104AF000F081E02D0995112331F088EC92E00E94BD
:104B00004D2F9B838A83DF91CF911F910895DC0104
:104B1000ED91FC910480F581E02D099508956817C9
:104B2000790768F4861B970B2091E8033091E9031D
:104B30002817390720F49093E9038093E803089538
:104B40001092F4031092F3030895CF93DF93EC01D6
:104B50000E94932E88819981DADF811103C0CE01F2
:104B60000E94472EDF91CF91089580914C0490913F
:104B70004D04EBDF80914A0490914B04E6DF809175
:104B80001C0190911D01DC01ED91FC910084F185E7
:104B9000E02D09958115904859F480911C01909160
:104BA0001D01DC01ED91FC910680F781E02D099556
:104BB0000895CF93DF931092F5038FE680930E0450
:104BC00060E08EE394E088DF80914C0490914D0486
:104BD000892B21F582EF90E00E94EA07EC01029612
:104BE0000E94AD16CE01805B9F4F0E94AD16CE0194
:104BF00082569F4F0E94AD16FE01E451FF4F2FEFEA
:104C000020838EEE92E09983888335962083D0931B
:104C10004D04C0934C04CE010E94472E80914A045B
:104C200090914B04892B21F582EF90E00E94EA07D6
:104C3000EC0102960E94AD16CE01805B9F4F0E9450
:104C4000AD16CE0182569F4F0E94AD16FE01E45173
:104C5000FF4F2FEF20838EEE92E099838883359665
:104C60002083D0934B04C0934A04CE010E94472E68
:104C70007CDF66DF1092ED031092EC031092EB03E1
:104C80001092EA03DF91CF910895CF92DF92EF92D5
:104C9000FF921F93CF93DF9380910E04823661F0D1
:104CA000803751F0863609F05DC180E090E890933E
:104CB000100480930F0456C120910F04309110040A
:104CC000211580E8380729F4309312042093110449
:104CD00049C180914C0490914D04FC01EC57FF4F69
:104CE0004485558566857785261B370B3093F703FA
:104CF0002093F6030E94222F9093FD038093FC03E0
:104D000080914A0490914B040E941C2FDC018091F9
:104D1000E7032091F6033091F7038C3321F08F5F86
:104D20008093E70388C01092E703C901E091F5037F
:104D30004091F8035091F9036091FA037091FB03DD
:104D4000E11167C0F90137FF04C0EE27FF27E21B1E
:104D5000F30BC0912204D0912304EC17FD070CF053
:104D600046C011E0121613060CF010E0E1E0141634
:104D70001506160617060CF0E0E01E1334C0E0918D
:104D80001104F0911204C0911A04D0911B04EC1785
:104D9000FD0714F080E090E0C0911804D091190450
:104DA000CE17DF0714F080E090E0C0900F04D090A1
:104DB0001004E0903C04F0903D04EF01CC19DD09B3
:104DC000CE15DF0514F080E090E0CE1ADF0ACE1495
:104DD000DF0414F080E090E0111117C0FC5FEA17C7
:104DE000FB07CCF416C0C901880F991F14C06A01D3
:104DF0007B0183E0F594E794D794C7948A95D1F723
:104E0000882799278C199D0906C0F450AE17BF0753
:104E100014F480E090E0AA2797FDA095BA2F840FA4
:104E2000951FA61FB71F8093F8039093F903A093D3
:104E3000FA03B093FB03B90180911C0490911D0407
:104E40001BD79093FF038093FE034091F80350918A
:104E5000F9036091FA037091FB0380911E04909115
:104E60001F04FED690930104809300046091FC031C
:104E70007091FD038091200490912104FDD69093C0
:104E8000030480930204C0900F04D0901004EE2419
:104E9000D7FCE094FE2C4091FE035091FF0366275F
:104EA00057FD6095762FC40ED51EE61EF71E409165
:104EB000000450910104662757FD6095762FC40EBB
:104EC000D51EE61EF71EAA2797FDA095BA2FC80E7D
:104ED000D91EEA1EFB1EC701B60172D620910F042F
:104EE0003091100440913C0450913D04241B350B3B
:104EF00082179307A4F0C701B60162D620910F0470
:104F00003091100440913C0450913D04240F351F12
:104F10002817390724F0C701B60152D601C0C901CC
:104F20006C01EE24D7FCE094FE2CC701B60148D6F4
:104F300020911804309119048217930774F0C70167
:104F4000B6013ED620911A0430911B042817390768
:104F500024F0C701B60134D601C0C90190931204F0
:104F600080931104DF91CF911F91FF90EF90DF901C
:104F7000CF900895CF93DF93EC0177FF03C0719535
:104F800061957109F5E075956795FA95E1F78827C0
:104F900077FD8095982F2AE930E040E050E047D631
:104FA000688179818A599D4F67D68931910514F4BA
:104FB00089E190E0998388830E942016DF91CF9148
:104FC0000895CF93DF93EC0177FF03C0719561954E
:104FD0007109A5E075956795AA95E1F7882777FD92
:104FE0008095982F25E530E040E050E020D668819C
:104FF00079812AEA31E0A901481B590BCA013CD644
:10500000998388830E942016DF91CF910895609143
:10501000EA037091EB0388EC92E02FC76091EC03F8
:105020007091ED0388EC92E028C76091EE037091D7
:10503000EF0388EC92E021C747E250E0BC0187E132
:1050400094E00C94CC3349E050E0BC018EE094E055
:105050000E94CC3380910F04909110049093F1033F
:105060008093F00308956091340480914A049091F4
:105070004B04F4D66091350480914A0490914B041E
:10508000F0D66091360480914A0490914B04EDD69D
:105090006091370480914C0490914D04DFD660916B
:1050A000380480914C0490914D04DBD66091390412
:1050B00080914C0490914D04D8C647E250E0BC0169
:1050C00087E194E00E94B433CECF47E250E063E73B
:1050D00077E087E194E00E946131C5CF90910E04A2
:1050E000891305C09091F5039550933018F41092F0
:1050F000F50302C0662381F080930E048F3651F4CD
:1051000080E090E89093100480930F049093120431
:10511000809311040C942016089560E08FE6DEDF82
:1051200080E098EC9093100480930F049093120405
:105130008093110486E690E0909314048093130406
:1051400080E09AE09093160480931504089549E056
:1051500050E0BC018EE094E00E94B43380910F04D3
:10516000909110049093F1038093F00361E080919B
:105170000E04B4CFE0914C04F0914D0480819181F4
:10518000C6DC882329F080914C0490914D0454C6CC
:1051900080E090E8089580910F04909110040895A4
:1051A000E0914A04F0914B0480819181B0DC882326
:1051B00029F080914A0490914B043EC680E090E82B
:1051C0000895809111049091120408959091F5032F
:1051D00081E0943021F0983011F080E00895089536
:1051E000A4E0B0E0E5EFF8E2F6C64817590708F486
:1051F000CA019C01DB01CBD620E13EE040E050E05B
:105200008FD6890129833A834B835C83DFDF298131
:105210003A81882321F000271127021B130B80916C
:105220004A0490914B0408D6800F911F9093050477
:10523000809304042496E4E0EAC6A0E0B0E0E2E251
:10524000F9E2C0C68091120190911301DC01ED9149
:10525000FC910190F081E02D09959091F20389175E
:10526000A9F08093F203882319F08CE697E002C03E
:1052700085E697E09F938F9386E597E09F938F93C2
:105280000E94AF200F900F900F900F9080910E040E
:105290008F3631F481E08093F5037724739401C055
:1052A000712C80911104909112048115904809F499
:1052B0003BC1E0914A04F0914B048081918127DC4D
:1052C000882309F431C1E0914C04F0914D048081B0
:1052D00091811DDC811108C080910E04823609F491
:1052E00023C1803709F420C1A0DEEC0190DE5C010F
:1052F00095DE6C0180914A0490914B049DD54C0140
:1053000080914C0490914D0497D57C0188EC92E0FB
:10531000C4D50091F50310E00A30110508F009C169
:10532000F801EC59FF4F18C69093EF038093EE03FA
:105330007110FFC01092E9031092E803209111044C
:10534000309112048091240490912504820F931FC0
:10535000881599055CF5B60188E592E0E0DB80915F
:105360000E04863621F4B50188E592E00CC08091E8
:105370000F04909110040F968E159F050CF0CDC070
:10538000B5018CE291E0CBDB80911801909119017D
:10539000805F924009F447C08091E8039091E9034F
:1053A000892B11F085E03AC084E038C08091260452
:1053B00090912704820F931F881699060CF0ADC0B8
:1053C000B50188E592E0ABDBB6018CE291E0A7DBAA
:1053D00080910E04863649F080910F04909110045C
:1053E0000F97E816F9060CF098C080911A01909179
:1053F0001B01805F924059F480913A04882399F010
:105400008091160190911701805F924061F0809128
:10541000E8039091E903892B21F086E08093F5035E
:1054200002C083E0FBCF8091F5038350823008F007
:1054300080C08091F303811105C08091F40388231B
:1054400009F477C087E06DC021E02093F3039093C7
:10545000EB038093EA036091150470911604AE018A
:105460008091320490913304BBDE84E08093F50395
:10547000209104043091050480911104909112044C
:105480008217930774F480910E04863609F451C094
:1054900080910F04909110044097E816F9060CF0E3
:1054A00048C0C53BD10528F030930704209306047B
:1054B00034C088E036C021E02093F4039093ED03DC
:1054C0008093EC036091130470911404AE018091F9
:1054D00030049091310484DE83E08093F5032091C1
:1054E000040430910504809111049091120428174E
:1054F000390764F480910E048636D9F080910F0448
:105500009091100440968E159F059CF4C53BD105E3
:1055100038F030930904209308041092F50309C071
:1055200089E08093F50305C01092F5037724739406
:10553000DBCECDB7DEB7EDE061C5CF93DF93EC01F5
:1055400020910F04309110049093100480930F0465
:10555000281B390B37FF03C03195219531092130C4
:1055600031400CF0EDDA91DB68DE80910E0480377B
:1055700071F42091F0033091F1032C1B3D0B37FFA8
:1055800003C03195219531092138310514F00E946D
:105590002016DF91CF910895909312048093110407
:1055A000CFDA73DB4ADE0C9420169091F50381E08C
:1055B000933021F0993011F080E008950895CF9351
:1055C000DF9380910E04843709F466C06091400433
:1055D0007091410488EC92E050D4209142043091C3
:1055E00043048217930758F0E0913E04F0913F0482
:1055F0000190F081E02D60E08EE394E00995D5DF25
:10560000C82FE4DDD82F8091180190911901DC0199
:10561000ED91FC910190F081E02D6D2F0995A09105
:105620001A01B0911B01ED91FC9111970190F0814D
:10563000E02D80913A04882311F060E001C06C2FC6
:10564000CD010995A0911601B0911701ED91FC9142
:1056500011970190F081E02D8091F203811109C032
:1056600080913A04882311F0C11103C0609149046C
:1056700001C061E0CD01099580911401909115015F
:10568000DC01ED91FC910190F081E02DCC2311F033
:1056900061E001C06D2F0995DF91CF910895A0E0E1
:1056A000B0E0E4E5FBE293C48091F403882319F0B1
:1056B0007CDF882349F08091F303882309F4D8C064
:1056C00085DD8111D5C05EC080914A0490914B0464
:1056D000BDD3EC0100910804109109047C01E01A8B
:1056E000F10AC0901304D0901404C11580E8D807C3
:1056F000B9F080912804909129048E159F0524F417
:10570000B70183E194E036DC80912A0490912B0468
:10571000E816F9065CF5B70183E194E052DC26C097
:105720007DDC8538934008F4A3C080914A049091B1
:105730004B0482D3209108043091090440912A043B
:1057400050912B04240F351F8217930764F4809126
:105750004A0490914B0470D3EC01B70183E194E0CB
:1057600030DC23E104C01092F40382C021E1809177
:10577000130490911404D0930D04C0930C04109260
:10578000F4035DC080914A0490914B0463D3EC0113
:1057900000910604109107047C01E01AF10AC09000
:1057A0001504D0901604C11590E8D907B9F080917E
:1057B0002E0490912F04E816F90624F4B70185E130
:1057C00094E0D8DB80912C0490912D048E159F05D8
:1057D0005CF5B70185E194E0F4DB26C018DC893084
:1057E000974008F445C080914A0490914B0424D31B
:1057F000209106043091070440912C0450912D040F
:10580000240F351F2817390764F480914A049091BA
:105810004B0412D3EC01B70185E194E0D2DB24E123
:1058200004C01092F30324C022E1809115049091EA
:105830001604D0930B04C0930A041092F3039F93B1
:105840008F93DF92CF921F930F93DF93CF938BE4CD
:1058500092E09F938F932F9389E48F930E94041873
:105860008DB79EB70C960FB6F8949EBF0FBE8DBF36
:10587000CDB7DEB7E8E0C7C3E7E4F4E080E491E049
:10588000918380831092490484E592E090933F04D1
:1058900080933E0488E592E0909343048093420411
:1058A000F0934504E0934404089584E391E09093D9
:1058B0003F0480933E0490934804809347040895E6
:1058C000A0E0B0E0E5E6FCE288C39E01255F3F4F23
:1058D00049855A856F8178858D819E8159D5E2E011
:1058E00098C38F929F92AF92BF92DF92EF92FF92F6
:1058F0000F931F93CF93DF93EC01D02E77FD03C05E
:1059000080E2888309C08DE2888370956095509508
:1059100041955F4F6F4F7F4F4A015B0139E0B5946E
:10592000A794979487943A95D1F77401213039F070
:10593000223051F008EE13E0EAE9F7E009C00AE08E
:1059400010E0EAEAF7E004C004E610E0E2EAF7E07B
:105950009A01AB01317044275527D8011ED37F5FD0
:105960008F4F9F4F29E095958795779567952A9555
:10597000D1F76017710730F074018FEFE81AF80A59
:1059800060E070E07F936F93FF92EF92FF93EF934D
:105990008D2D90E001979F938F93CE0101969F9359
:1059A0008F938EDF8DB79EB70A960FB6F8949EBF81
:1059B0000FBE8DBFCE01DF91CF911F910F91FF9050
:1059C000EF90DF90BF90AF909F908F9008950F93CE
:1059D000342FAB01662757FD6095762F022F232FBA
:1059E00080DF0F910895A0E0B0E0E8EFFCE2EAC2AA
:1059F000EC0188818D3221F421967724739401C0C3
:105A0000712C6EE270E0CE017ED48C01CE0133D4D5
:105A10006B017C010115110531F1E8012196CE01E0
:105A20007AD48C01CE0127D49B01AC0179E0220FFE
:105A3000331F441F551F7A95D1F7C0E0D0E0EAE04C
:105A40008E2E912CA12CB12C802F8C1B181674F447
:105A5000CA01B9016B5F7F4F8F4F9F4FA501940122
:105A60005FD22196F1CF20E030E0A90169E0CC0CB3
:105A7000DD1CEE1CFF1C6A95D1F7C20ED31EE41E7E
:105A8000F51E772041F066277727CB016C197D0939
:105A90008E099F0902C0C701B601CDB7DEB7EDE0A0
:105AA000ADC2CF93C42F20911704263499F4A5E0FA
:105AB000B0E09B01AC0171D229E030E040E050E061
:105AC0002FD2CA01B901CC2351F06E587348810915
:105AD000910905C0442319F0705681099109CF91AD
